:020000040800F2
:10000000D8060020CD010008370E0008C90D0008F1
:10001000350E0008D3020008C30F000800000000DE
:100020000000000000000000000000005D0F00085C
:10003000D502000800000000390E00085F0F00081C
:10004000E7010008E7010008E7010008E7010008F0
:10005000E7010008E7010008E7010008E7010008E0
:10006000E7010008E7010008E7010008E7010008D0
:10007000E7010008E7010008E7010008E7010008C0
:10008000E7010008E7010008E7010008E7010008B0
:10009000E7010008E7010008E7010008E7010008A0
:1000A000E7010008E7010008E7010008E701000890
:1000B000E7010008E7010008E7010008E701000880
:1000C000E7010008E7010008E7010008E701000870
:1000D000E7010008E7010008E7010008E701000860
:1000E000E7010008E7010008E7010008E701000850
:1000F000E7010008E7010008E7010008E701000840
:10010000E7010008E7010008E7010008E70100082F
:10011000E7010008E7010008E7010008E70100081F
:10012000E7010008E7010008E7010008E70100080F
:1001300000F002F800F03AF80AA090E8000C8244BF
:100140008344AAF10107DA4501D100F02FF8AFF29C
:10015000090EBAE80F0013F0010F18BFFB1A43F0A5
:1001600001031847B80E0000D80E0000103A24BF53
:1001700078C878C1FAD8520724BF30C830C144BF0C
:1001800004680C607047000000230024002500264E
:10019000103A28BF78C1FBD8520728BF30C148BFEA
:1001A0000B6070471FB51FBD10B510BD00F058F8AB
:1001B0001146FFF7F7FF00F015FF00F076F803B4E3
:1001C000FFF7F2FF03BC00F07DF80000094880470C
:1001D00009480047FEE7FEE7FEE7FEE7FEE7FEE729
:1001E000FEE7FEE7FEE7FEE704480549054A064B41
:1001F00070470000C10F000831010008D80000203E
:10020000D8060020D8020020D80200204FF00002BB
:1002100000B5134694469646203922BFA0E80C50FC
:10022000A0E80C50B1F12001BFF4F7AF090728BFD7
:10023000A0E80C5048BF0CC05DF804EB890028BF53
:1002400040F8042B08BF704748BF20F8022B11F07C
:10025000804F18BF00F8012B7047704770477047F8
:10026000754600F02BF8AE4605006946534620F06F
:100270000700854618B020B5FFF7B6FFBDE820405F
:100280004FF000064FF000074FF000084FF0000B52
:1002900021F00701AC46ACE8C009ACE8C009ACE805
:1002A000C009ACE8C0098D46704710B50446AFF3ED
:1002B00000802046BDE81040FFF781BF004870472E
:1002C0007800002001491820ABBEFEE7260002009E
:1002D0007047FEE7704772B6FEE700002DE9F84F61
:1002E000DFF8C8910024A9F1040B23460F2709F178
:1002F000040AABF1040ED1E00125A54006EA05028F
:10030000AA4276D1DFF8A8C14E68A6EB0C08664574
:100310002BD00DDC032E34D005DC36B3012E19D0E2
:10032000022E2FD11BE0112E16D0122E2AD119E049
:10033000B8F5881F19D006DCB8F5803F15D0B8F5A0
:10034000801F1FD111E0B8F5001F0ED0B8F5041FB3
:1003500018D10AE0CB6815E0CB681B1D12E0CB6812
:1003600008330FE0CB680C330CE08B682BB1012B0A
:100370004FF0080303D0456104E0042302E0056167
:1003800000E00023FF2A01D8064601E000F1040640
:100390004FEA840501D9A5F12005D6F8008007FAB7
:1003A00005FC28EA0C0803FA05F548EA0508C6F832
:1003B00000804D68ED0070D53E4DAE6946F00106F7
:1003C000AE61AD6924F0030605F0010500953A4DD4
:1003D00006EB050CDCF80850A607360F07FA06F8FE
:1003E00025EA0805DFF8D480404503D14FF0000826
:1003F00025E052E0DFF8C880404502D14FF0010807
:100400001DE0DFF8C080404502D14FF0020816E041
:10041000DFF8B480404502D14FF003080FE0DFF869
:10042000AC80404502D14FF0040808E0DFF8A0801E
:10043000404502D14FF0050801E04FF0060808FAE8
:1004400006F848EA0508CCF808804D68D9F800603D
:10045000ED024D4601D5164300E096432E604D68EF
:10046000DAF80060AD02554601D5164300E0964328
:100470002E604D68DBF80060AD035D4601D5164384
:1004800000E096432E604D68DEF80060ED0375468F
:1004900001D5164300E096432E60641C0A68164698
:1004A000E2407FF429AFBDE8F88F00000804014066
:1004B000000011100010024000000140000801403F
:1004C000000C0140001001400014014000180140E0
:1004D000001C0140014880687047000010000020A7
:1004E0000248816802781144816070471000002042
:1004F000074810B5016841F010010160032000F0C9
:1005000067F80F2000F006F800F024F8002010BD76
:100510000020024070B50D4D04464FF47A712878E2
:10052000B1FBF0F00A490968B1FBF0F000F038FCCB
:1005300048B9102C07D200222146501E00F028F89E
:1005400000206C6070BD012070BD00001000002014
:100550001C0000200C4808B5816941F0010181614F
:10056000816901F001010091C16941F08051C161CF
:10057000C06900F0805000900448416821F0E061BB
:1005800041F00071416008BD0010024000000140D0
:10059000F0B40E4B1B680C46C3F30223C3F10705EE
:1005A000042D00D90425191D072901D2002300E0DC
:1005B000DB1E012606FA05F1491E214099409E40A6
:1005C000761E16403143F0BC00F0FCBC0CED00E0A0
:1005D000064900F0070208684FF6FF03184040EA9A
:1005E0000220034A10430860704700000CED00E051
:1005F0000000FA052DE9F0470F46050061D0434E93
:10060000306800F00700B84209D2306820F00700D7
:1006100038433060306800F00700B84251D1286894
:100620003B4C810712D5400703D5606840F4E06079
:1006300060602878000703D5606840F4605060600F
:100640006068A96820F0F000084360602878C0075F
:1006500028D06868012810D02168022810D08907A6
:1006600000292EDA616821F0030101436160FFF780
:1006700031FF804641F288390DE021688903EFE7B8
:100680008901EDE7FFF726FFA0EB0801494502D9F4
:100690000320BDE8F0876068696800F00C00B0EBEB
:1006A000810FEFD1306800F00700B8420BD93068F5
:1006B00020F0070038433060306800F00700B8428F
:1006C00001D00120E5E72878400705D56068E96892
:1006D00020F4E060084360602878000706D5606871
:1006E000296920F4605040EAC100606000F018F809
:1006F0006168084AC1F30311515CC84006490860AB
:1007000006480068FFF706FF0020C2E7002002400D
:10071000001002400C1000081C00002014000020F3
:100720000E4A51680E4801F00C03042B11D0082B1F
:100730000FD10C48C1F38343C903C05C0AD551688B
:10074000084AC1F34041921E515C054A5043B0FB38
:10075000F1F0704704494843704700000010024020
:1007600000127A00FC0F000800093D002DE9F84F47
:10077000040070D02078C04DC00749D06868C0F32D
:100780008100012807D06868C0F38100022809D1E0
:100790006868C00306D52868800339D560680028DA
:1007A000E7D035E06068B0F5803F0BD010B1B0F510
:1007B000A02F11D0286820F480302860286820F409
:1007C000802002E0286840F480302860606890B1A2
:1007D000FFF780FE06460AE0286840F48020286083
:1007E000F0E700BFFFF776FE801B642873D8286807
:1007F0008003F7D50CE0FFF76DFE064605E000BF6D
:10080000FFF768FE801B6428F0D828688003F7D4BF
:1008100020789A4E80074FF001094FF0000839D533
:10082000686810F00C0F07D06868C0F381000228D8
:1008300009D16868C00306D42868800714D52069E8
:10084000012808D110E02069B0B1C6F80090FFF788
:1008500041FE074605E00AE1FFF73CFEC01B022807
:10086000C4D828688007F7D52868616920F0F800A7
:1008700040EAC10028600DE0C6F80080FFF72AFEBC
:10088000074604E0FFF726FEC01B022823D828688D
:100890008007F7D4207800072CD57948A169D9B111
:1008A000C0F80090FFF716FE074604E0FFF712FEBF
:1008B000C01B02280FD8686A8007F7D571484FF42B
:1008C000FA510068B0FBF1F0009000BF0098411EA3
:1008D0000091FAD20EE080E0C0F80080FFF7FAFD48
:1008E000074604E0FFF7F6FDC01B022875D8686ACA
:1008F0008007F7D42078400760D5E8690027C0005A
:1009000008D4E86940F08050E861E869012700F008
:10091000805000905C480168C90513D40168834683
:1009200041F480710160FFF7D5FD824606E000BF0B
:10093000FFF7D0FDA0EB0A0064284ED8DBF80000DA
:10094000C005F5D5E06801280AD008B1052813D004
:10095000286A20F001002862286A20F0040002E0E2
:10096000286A40F001002862E06841F2883B98B1B3
:10097000FFF7B0FD82460BE0286A40F004002862D1
:10098000EEE700BFFFF7A6FDA0EB0A0159455AD8D4
:10099000286A8007F6D50CE0FFF79CFD824605E04B
:1009A000FFF798FDA0EB0A0159454CD8286A80074B
:1009B000F6D41FB1E86920F08050E861E06988B39F
:1009C0006968C1F38101022944D00228C6F8608019
:1009D00004D0FFF77FFD044638E034E0FFF77AFDEE
:1009E000074604E0FFF776FDC01B02282BD82868D5
:1009F0008001F7D4206AB0F5803F05D16868A1680E
:100A000020F4003008436860D4E9080108436968AD
:100A100021F4741108436860C6F86090FFF75AFD2E
:100A2000044606E025E000BFFFF754FD001B022846
:100A300009D828688001F7D51BE000BFFFF74AFD01
:100A4000001B022802D90320BDE8F88F2868800126
:100A5000F4D40EE00128F7D06868226A00F48031EF
:100A6000914204D1616A00F47010884201D00120E3
:100A7000EAE70020E8E700000010024000004242E0
:100A8000800442421C0000200070004070B5040049
:100A900009D0606A002540B125616561A56294F8BE
:100AA000510040B10CE0012070BD6068B0F5827F5C
:100AB000F4D0E561F2E784F85050204600F040F8A9
:100AC000022084F851002068016821F04001016093
:100AD000A088218900F4827001F404410843A189AF
:100AE00001F400610843217C01F002010843217DEB
:100AF00001F001010843218B01F400710843217FBB
:100B000001F03801084394F8201001F080010843F7
:100B1000218D01F40051084321680860A069042177
:100B200001EA1040216848602068C16921F4006131
:100B3000C1616565012084F85100002070BD00008E
:100B400010B586B0002100910191029103910068D7
:100B50001449884223D11448C16941F48041C161DC
:100B6000C16901F480410491816941F0080181610A
:100B700080690E4C00F0080004904FF43040009063
:100B800069462046FFF7AAFB4FF480400090022000
:100B900001900320039069462046FFF79FFB06B0B3
:100BA00010BD00000038004000100240000C014061
:100BB0002DE9FF4F81B01D46934604464FF00109D1
:100BC0000E9EFFF787FC074694F8510061680128E4
:100BD00006D0B1F5827F3CD1A168C9BB042838D1C9
:100BE0000298002871D0BBF1000FFBD0002DF9D086
:100BF00094F8500001282CD04FF0010A84F850A03E
:100C000094F85100042802D0052084F851004FF0D8
:100C10000008C4F85480C4F838B0E587A587029965
:100C20002163E586A586C4F84080C4F84480206826
:100C30000168490603D4016841F040010160E068A1
:100C4000B0F5006F606808D0F0B3012D49D081E0A5
:100C5000FFE7022005B0BDE8F08F08B1012D39D1C2
:100C6000206B21680088C860206B801C2063E08EA8
:100C7000401EE0862EE02068816889070FD5E18E4E
:100C800069B1B9F1010F0AD1216B0988C160206BEC
:100C9000801C2063E08E401EE0864FF00009206833
:100CA0008168C9070CD0E18F51B1C068A16B088081
:100CB000A06B801CA063E08F401EE0874FF001090D
:100CC000FFF708FCC01B01E00BE067E0B04201D376
:100CD000701C50D1E08E0028CDD1E08F0028CAD101
:100CE0003EE0206B216800780873206B401C206375
:100CF000E08E401EE0862DE02068816889070FD5D0
:100D0000E18E69B1B9F1010F0AD1216B0978017344
:100D1000206B401C2063E08E401EE0864FF00009EF
:100D200020688168C9070CD0E18F51B1C068A16B00
:100D30000870A06B401CA063E08F401EE0874FF05E
:100D40000109FFF7C7FBC01BB04202D3701C01D0E2
:100D500011E086B1E08E0028CED1E08F0028CBD103
:100D60003A463146204600F068F850B120206065D0
:100D700084F8508012E084F851A084F85080032059
:100D800068E7A06818B92068C1688068009084F896
:100D900051A084F85080606D0028F1D0012059E7FF
:100DA00010B5401EB0F1807F01D3012010BD4FF07F
:100DB000E02460610F21601700F004F90020A061B9
:100DC00007202061002010BDFEE70000094808B59B
:100DD000816941F008018161816901F00801009198
:100DE000816941F004018161806900F00400009094
:100DF00008BD0000001002400D4810B50B4901600D
:100E0000002141608160C1600161416181610162D5
:100E1000416281620A21C162FFF738FE002803D0D7
:100E2000BDE81040FFF757BA10BD00000038004081
:100E300020000020FEE7FEE77047F8B515460E4695
:100E40000B46009204460122022100F02BF840B923
:100E50003346002280212046009500F023F8002828
:100E600004D0606D40F0200060650320F8BD0000F4
:100E700008B50A48A52100220170AC21417082709A
:100E8000C170C0210171501E044A00900523083A28
:100E900002490348FFF78CFE08BD0000080000204F
:100EA000200000202DE9F8431E469146884604465E
:100EB000089DFFF70FFB401B351AFFF70BFB07469A
:100EC00025480068C0F3CB30684338E0701C37D049
:100ED000FFF700FBC01BA84203D215B1009860B316
:100EE0002CE02068416821F0E00141606068B0F5C5
:100EF000827F0BD1A068B0F5004F02D0B0F5806FB3
:100F000004D12068016821F040010160A06AB0F5B9
:100F1000005F09D12068016821F400510160206858
:100F2000016841F400510160012084F85100002063
:100F300084F850000320BDE8F8830025401E00908F
:100F40002068816838EA010004D000214945BDD1FC
:100F50000020F0E70121F9E71C0000207047FFF7AF
:100F6000BFBA30B58FB028216846FFF74FF914217A
:100F70000AA8FFF74BF901210804CDE9001000246D
:100F8000029402250491CDE907504FF4E010099036
:100F90006846FFF7EBFB08B172B6FEE70F20CDE91C
:100FA0000A054FF48060CDE90C4002210AA80E9496
:100FB000FFF720FB002801D072B6FEE70FB030BD6E
:100FC0007047FEE70907090E002804DB00F1E02066
:100FD00080F80014704700F00F0000F1E02080F866
:100FE000141D7047FFF784FAFFF7BBFFFFF7EEFE13
:100FF000FFF702FFFFF73CFFFCE7010202030405D5
:10100000060708090A0B0C0D0E0F10100000000057
:101010000000000001020304060708093C10000854
:1010200000000020200000006C0100085C10000897
:1010300020000020B8060000880100080000000021
:10104000000000000000000000000000010000009F
:0C105000100000000000000000127A00F8
:0400000508000131BD
:00000001FF
